{
  "contractName": "Voting",
  "abi": [
    {
      "constant": true,
      "inputs": [
        {
          "internalType": "uint256",
          "name": "",
          "type": "uint256"
        }
      ],
      "name": "parties",
      "outputs": [
        {
          "internalType": "uint256",
          "name": "id",
          "type": "uint256"
        },
        {
          "internalType": "string",
          "name": "name",
          "type": "string"
        },
        {
          "internalType": "string",
          "name": "description",
          "type": "string"
        },
        {
          "internalType": "string",
          "name": "imgUrl",
          "type": "string"
        },
        {
          "internalType": "uint256",
          "name": "numOfVotes",
          "type": "uint256"
        }
      ],
      "payable": false,
      "stateMutability": "view",
      "type": "function"
    },
    {
      "constant": true,
      "inputs": [],
      "name": "partyCount",
      "outputs": [
        {
          "internalType": "uint256",
          "name": "",
          "type": "uint256"
        }
      ],
      "payable": false,
      "stateMutability": "view",
      "type": "function"
    },
    {
      "constant": true,
      "inputs": [],
      "name": "votingEventCount",
      "outputs": [
        {
          "internalType": "uint256",
          "name": "",
          "type": "uint256"
        }
      ],
      "payable": false,
      "stateMutability": "view",
      "type": "function"
    },
    {
      "constant": true,
      "inputs": [
        {
          "internalType": "uint256",
          "name": "",
          "type": "uint256"
        }
      ],
      "name": "votingEvents",
      "outputs": [
        {
          "internalType": "uint256",
          "name": "id",
          "type": "uint256"
        },
        {
          "internalType": "string",
          "name": "title",
          "type": "string"
        },
        {
          "internalType": "string",
          "name": "description",
          "type": "string"
        },
        {
          "internalType": "string",
          "name": "imgUrl",
          "type": "string"
        },
        {
          "internalType": "uint256",
          "name": "numOfVotes",
          "type": "uint256"
        },
        {
          "internalType": "uint256",
          "name": "partyCount",
          "type": "uint256"
        }
      ],
      "payable": false,
      "stateMutability": "view",
      "type": "function"
    },
    {
      "constant": false,
      "inputs": [
        {
          "internalType": "string",
          "name": "_title",
          "type": "string"
        },
        {
          "internalType": "string",
          "name": "_description",
          "type": "string"
        },
        {
          "internalType": "string",
          "name": "_imgUrl",
          "type": "string"
        }
      ],
      "name": "addVotingEvent",
      "outputs": [],
      "payable": false,
      "stateMutability": "nonpayable",
      "type": "function"
    },
    {
      "constant": false,
      "inputs": [
        {
          "internalType": "uint256",
          "name": "_eventId",
          "type": "uint256"
        },
        {
          "internalType": "string",
          "name": "_name",
          "type": "string"
        },
        {
          "internalType": "string",
          "name": "_description",
          "type": "string"
        },
        {
          "internalType": "string",
          "name": "_imgUrl",
          "type": "string"
        }
      ],
      "name": "addPartyToEvent",
      "outputs": [],
      "payable": false,
      "stateMutability": "nonpayable",
      "type": "function"
    },
    {
      "constant": false,
      "inputs": [
        {
          "internalType": "uint256",
          "name": "_eventId",
          "type": "uint256"
        },
        {
          "internalType": "uint256",
          "name": "_partyIndex",
          "type": "uint256"
        }
      ],
      "name": "voteForParty",
      "outputs": [],
      "payable": false,
      "stateMutability": "nonpayable",
      "type": "function"
    }
  ],
  "bytecode": "0x608060405260008055600060015534801561001957600080fd5b50610e5c806100296000396000f3fe608060405234801561001057600080fd5b506004361061007d5760003560e01c80639947f5761161005b5780639947f576146105565780639eb8e72514610570578063bf9b48a714610578578063cbe8ca03146106ee5761007d565b806370651a18146100825780637bd01903146101f15780639161dd14146103a8575b600080fd5b61009f6004803603602081101561009857600080fd5b5035610711565b60405180868152602001806020018060200180602001858152602001848103845288818151815260200191508051906020019080838360005b838110156100f05781810151838201526020016100d8565b50505050905090810190601f16801561011d5780820380516001836020036101000a031916815260200191505b50848103835287518152875160209182019189019080838360005b83811015610150578181015183820152602001610138565b50505050905090810190601f16801561017d5780820380516001836020036101000a031916815260200191505b50848103825286518152865160209182019188019080838360005b838110156101b0578181015183820152602001610198565b50505050905090810190601f1680156101dd5780820380516001836020036101000a031916815260200191505b509850505050505050505060405180910390f35b6103a66004803603608081101561020757600080fd5b81359190810190604081016020820135600160201b81111561022857600080fd5b82018360208201111561023a57600080fd5b803590602001918460018302840111600160201b8311171561025b57600080fd5b91908080601f0160208091040260200160405190810160405280939291908181526020018383808284376000920191909152509295949360208101935035915050600160201b8111156102ad57600080fd5b8201836020820111156102bf57600080fd5b803590602001918460018302840111600160201b831117156102e057600080fd5b91908080601f0160208091040260200160405190810160405280939291908181526020018383808284376000920191909152509295949360208101935035915050600160201b81111561033257600080fd5b82018360208201111561034457600080fd5b803590602001918460018302840111600160201b8311171561036557600080fd5b91908080601f0160208091040260200160405190810160405280939291908181526020018383808284376000920191909152509295506108e0945050505050565b005b6103a6600480360360608110156103be57600080fd5b810190602081018135600160201b8111156103d857600080fd5b8201836020820111156103ea57600080fd5b803590602001918460018302840111600160201b8311171561040b57600080fd5b91908080601f0160208091040260200160405190810160405280939291908181526020018383808284376000920191909152509295949360208101935035915050600160201b81111561045d57600080fd5b82018360208201111561046f57600080fd5b803590602001918460018302840111600160201b8311171561049057600080fd5b91908080601f0160208091040260200160405190810160405280939291908181526020018383808284376000920191909152509295949360208101935035915050600160201b8111156104e257600080fd5b8201836020820111156104f457600080fd5b803590602001918460018302840111600160201b8311171561051557600080fd5b91908080601f016020809104026020016040519081016040528093929190818152602001838380828437600092019190915250929550610a00945050505050565b61055e610ab7565b60408051918252519081900360200190f35b61055e610abd565b6105956004803603602081101561058e57600080fd5b5035610ac3565b60405180878152602001806020018060200180602001868152602001858152602001848103845289818151815260200191508051906020019080838360005b838110156105ec5781810151838201526020016105d4565b50505050905090810190601f1680156106195780820380516001836020036101000a031916815260200191505b5084810383528851815288516020918201918a019080838360005b8381101561064c578181015183820152602001610634565b50505050905090810190601f1680156106795780820380516001836020036101000a031916815260200191505b50848103825287518152875160209182019189019080838360005b838110156106ac578181015183820152602001610694565b50505050905090810190601f1680156106d95780820380516001836020036101000a031916815260200191505b50995050505050505050505060405180910390f35b6103a66004803603604081101561070457600080fd5b5080359060200135610c96565b6003602090815260009182526040918290208054600180830180548651600293821615610100026000190190911692909204601f8101869004860283018601909652858252919492939092908301828280156107ae5780601f10610783576101008083540402835291602001916107ae565b820191906000526020600020905b81548152906001019060200180831161079157829003601f168201915b50505060028085018054604080516020601f60001961010060018716150201909416959095049283018590048502810185019091528181529596959450909250908301828280156108405780601f1061081557610100808354040283529160200191610840565b820191906000526020600020905b81548152906001019060200180831161082357829003601f168201915b5050505060038301805460408051602060026001851615610100026000190190941693909304601f81018490048402820184019092528181529495949350908301828280156108d05780601f106108a5576101008083540402835291602001916108d0565b820191906000526020600020905b8154815290600101906020018083116108b357829003601f168201915b5050505050908060040154905085565b6000841180156108f257506000548411155b610936576040805162461bcd60e51b815260206004820152601060248201526f125b9d985b1a5908195d995b9d08125160821b604482015290519081900360640190fd5b600084815260026020908152604080832060068101546001805481018155835160a0810185529181018083528286018a81528386018a905260608401899052608084018890528188526005850187529490962082518155935180519396959294936109a993928501929190910190610d8c565b50604082015180516109c5916002840191602090910190610d8c565b50606082015180516109e1916003840191602090910190610d8c565b5060809190910151600490910155506006018054600101905550505050565b6000805460019081018083556040805160c0810182528281526020808201898152828401899052606083018890526080830187905260a08301879052938652600281529190942084518155915180519293610a6393908501929190910190610d8c565b5060408201518051610a7f916002840191602090910190610d8c565b5060608201518051610a9b916003840191602090910190610d8c565b506080820151600482015560a090910151600690910155505050565b60005481565b60015481565b60026020818152600092835260409283902080546001808301805487519281161561010002600019011695909504601f8101859004850282018501909652858152909491939092909190830182828015610b5e5780601f10610b3357610100808354040283529160200191610b5e565b820191906000526020600020905b815481529060010190602001808311610b4157829003601f168201915b50505060028085018054604080516020601f6000196101006001871615020190941695909504928301859004850281018501909152818152959695945090925090830182828015610bf05780601f10610bc557610100808354040283529160200191610bf0565b820191906000526020600020905b815481529060010190602001808311610bd357829003601f168201915b5050505060038301805460408051602060026001851615610100026000190190941693909304601f8101849004840282018401909252818152949594935090830182828015610c805780601f10610c5557610100808354040283529160200191610c80565b820191906000526020600020905b815481529060010190602001808311610c6357829003601f168201915b5050505050908060040154908060060154905086565b600082118015610ca857506000548211155b610cec576040805162461bcd60e51b815260206004820152601060248201526f125b9d985b1a5908195d995b9d08125160821b604482015290519081900360640190fd5b600081118015610d0d57506000828152600260205260409020600601548111155b610d54576040805162461bcd60e51b8152602060048201526013602482015272092dcecc2d8d2c840e0c2e4e8f240d2dcc8caf606b1b604482015290519081900360640190fd5b600091825260026020908152604080842092845260058301909152909120600490810180546001908101909155910180549091019055565b828054600181600116156101000203166002900490600052602060002090601f016020900481019282601f10610dcd57805160ff1916838001178555610dfa565b82800160010185558215610dfa579182015b82811115610dfa578251825591602001919060010190610ddf565b50610e06929150610e0a565b5090565b610e2491905b80821115610e065760008155600101610e10565b9056fea265627a7a723158204f7fc39aaa96a7207cd384ba2823b498de826ebbb287741f87f7c19eb0fba14764736f6c63430005100032",
  "source": "pragma solidity >=0.4.22 <0.7.0;\n\ncontract Voting {\n    uint public votingEventCount = 0;\n    uint public partyCount = 0;\n\n    struct VotingEvent {\n        uint id;\n        string title;\n        string description;\n        string imgUrl;\n        uint numOfVotes;\n        mapping(uint => Party) parties; // Mapping from party index to Party struct\n        uint partyCount; // Counter for the number of parties in this event\n    }\n\n    struct Party {\n        uint id;\n        string name;\n        string description;\n        string imgUrl;\n        uint numOfVotes;\n    }\n\n    mapping(uint => VotingEvent) public votingEvents;\n    mapping(uint => Party) public parties;\n\n    function addVotingEvent(string memory _title, string memory _description, string memory _imgUrl) public {\n        votingEventCount++;\n        votingEvents[votingEventCount] = VotingEvent(votingEventCount, _title, _description, _imgUrl, 0, 0);\n    }\n\n    function addPartyToEvent(uint _eventId, string memory _name, string memory _description, string memory _imgUrl) public {\n        require(_eventId > 0 && _eventId <= votingEventCount, \"Invalid event ID\");\n\n        VotingEvent storage currentEvent = votingEvents[_eventId];\n        uint partyIndex = currentEvent.partyCount + 1; // Increment party count for the new party\n        partyCount++;\n\n        currentEvent.parties[partyIndex] = Party(partyIndex, _name, _description, _imgUrl, 0);\n        currentEvent.partyCount++;\n    }\n\n    function voteForParty(uint _eventId, uint _partyIndex) public {\n        require(_eventId > 0 && _eventId <= votingEventCount, \"Invalid event ID\");\n        require(_partyIndex > 0 && _partyIndex <= votingEvents[_eventId].partyCount, \"Invalid party index\");\n\n        VotingEvent storage currentEvent = votingEvents[_eventId];\n        Party storage votedParty = currentEvent.parties[_partyIndex];\n        \n        votedParty.numOfVotes++;\n        currentEvent.numOfVotes++;\n    }\n}\n",
  "sourcePath": "/home/chirag/Desktop/Web-Development/E-Voting/contracts/voting.sol",
  "compiler": {
    "name": "solc",
    "version": "0.5.16+commit.9c3226ce.Emscripten.clang"
  },
  "schemaVersion": "3.4.16",
  "updatedAt": "2024-01-21T00:55:56.002Z",
  "networkType": "ethereum",
  "devdoc": {
    "methods": {}
  },
  "userdoc": {
    "methods": {}
  }
}