{
  "contractName": "voting",
  "abi": [
    {
      "constant": true,
      "inputs": [],
      "name": "votingCount",
      "outputs": [
        {
          "internalType": "uint256",
          "name": "",
          "type": "uint256"
        }
      ],
      "payable": false,
      "stateMutability": "view",
      "type": "function"
    }
  ],
  "bytecode": "0x608060405260008055348015601357600080fd5b506080806100226000396000f3fe6080604052348015600f57600080fd5b506004361060285760003560e01c8063b424ab8414602d575b600080fd5b60336045565b60408051918252519081900360200190f35b6000548156fea265627a7a72315820f43554b38a7ca4fed94f8c09d55a2f6ed7b0a58bb4bc3b639faed3ce90e07dae64736f6c63430005100032",
  "source": "pragma solidity >=0.4.22 <0.7.0;\n\ncontract voting{\n    uint public votingCount = 0;\n\n\n}",
  "sourcePath": "/home/chirag/Desktop/Web-Development/E-Voting/contracts/voting.sol",
  "compiler": {
    "name": "solc",
    "version": "0.5.16+commit.9c3226ce.Emscripten.clang"
  },
  "schemaVersion": "3.4.16",
  "updatedAt": "2024-01-20T00:33:38.323Z",
  "networkType": "ethereum",
  "devdoc": {
    "methods": {}
  },
  "userdoc": {
    "methods": {}
  }
}